{
  "contractName": "ChargingEscrow",
  "abi": [
    {
      "inputs": [
        {
          "internalType": "address",
          "name": "_operator",
          "type": "address"
        },
        {
          "internalType": "address payable",
          "name": "_charger",
          "type": "address"
        },
        {
          "internalType": "string",
          "name": "_stationId",
          "type": "string"
        },
        {
          "internalType": "bytes32",
          "name": "_goldenHash",
          "type": "bytes32"
        },
        {
          "internalType": "uint8",
          "name": "_targetSoc",
          "type": "uint8"
        },
        {
          "internalType": "uint256",
          "name": "_sessionTimeout",
          "type": "uint256"
        }
      ],
      "stateMutability": "nonpayable",
      "type": "constructor"
    },
    {
      "anonymous": false,
      "inputs": [
        {
          "indexed": false,
          "internalType": "string",
          "name": "reason",
          "type": "string"
        }
      ],
      "name": "Cancelled",
      "type": "event"
    },
    {
      "anonymous": false,
      "inputs": [
        {
          "indexed": false,
          "internalType": "string",
          "name": "sessionId",
          "type": "string"
        },
        {
          "indexed": false,
          "internalType": "uint8",
          "name": "targetSoc",
          "type": "uint8"
        }
      ],
      "name": "ChargingStarted",
      "type": "event"
    },
    {
      "anonymous": false,
      "inputs": [
        {
          "indexed": true,
          "internalType": "address",
          "name": "buyer",
          "type": "address"
        },
        {
          "indexed": false,
          "internalType": "uint256",
          "name": "amount",
          "type": "uint256"
        }
      ],
      "name": "Deposited",
      "type": "event"
    },
    {
      "anonymous": false,
      "inputs": [
        {
          "indexed": true,
          "internalType": "address",
          "name": "charger",
          "type": "address"
        },
        {
          "indexed": false,
          "internalType": "uint256",
          "name": "amount",
          "type": "uint256"
        }
      ],
      "name": "FundsReleased",
      "type": "event"
    },
    {
      "anonymous": false,
      "inputs": [
        {
          "indexed": true,
          "internalType": "address",
          "name": "buyer",
          "type": "address"
        },
        {
          "indexed": false,
          "internalType": "uint256",
          "name": "amount",
          "type": "uint256"
        },
        {
          "indexed": false,
          "internalType": "string",
          "name": "reason",
          "type": "string"
        }
      ],
      "name": "Refunded",
      "type": "event"
    },
    {
      "anonymous": false,
      "inputs": [
        {
          "indexed": false,
          "internalType": "string",
          "name": "sessionId",
          "type": "string"
        },
        {
          "indexed": false,
          "internalType": "uint8",
          "name": "finalSoc",
          "type": "uint8"
        }
      ],
      "name": "SessionCompleted",
      "type": "event"
    },
    {
      "anonymous": false,
      "inputs": [
        {
          "indexed": false,
          "internalType": "uint8",
          "name": "previousSoc",
          "type": "uint8"
        },
        {
          "indexed": false,
          "internalType": "uint8",
          "name": "currentSoc",
          "type": "uint8"
        }
      ],
      "name": "SocUpdated",
      "type": "event"
    },
    {
      "anonymous": false,
      "inputs": [
        {
          "indexed": false,
          "internalType": "string",
          "name": "stationId",
          "type": "string"
        },
        {
          "indexed": false,
          "internalType": "bytes32",
          "name": "liveHash",
          "type": "bytes32"
        }
      ],
      "name": "StationVerified",
      "type": "event"
    },
    {
      "anonymous": false,
      "inputs": [
        {
          "indexed": false,
          "internalType": "string",
          "name": "stationId",
          "type": "string"
        },
        {
          "indexed": false,
          "internalType": "bytes32",
          "name": "liveHash",
          "type": "bytes32"
        },
        {
          "indexed": false,
          "internalType": "bytes32",
          "name": "goldenHash",
          "type": "bytes32"
        }
      ],
      "name": "VerificationFailed",
      "type": "event"
    },
    {
      "inputs": [],
      "name": "amount",
      "outputs": [
        {
          "internalType": "uint256",
          "name": "",
          "type": "uint256"
        }
      ],
      "stateMutability": "view",
      "type": "function",
      "constant": true
    },
    {
      "inputs": [],
      "name": "buyer",
      "outputs": [
        {
          "internalType": "address payable",
          "name": "",
          "type": "address"
        }
      ],
      "stateMutability": "view",
      "type": "function",
      "constant": true
    },
    {
      "inputs": [],
      "name": "charger",
      "outputs": [
        {
          "internalType": "address payable",
          "name": "",
          "type": "address"
        }
      ],
      "stateMutability": "view",
      "type": "function",
      "constant": true
    },
    {
      "inputs": [],
      "name": "createdAt",
      "outputs": [
        {
          "internalType": "uint256",
          "name": "",
          "type": "uint256"
        }
      ],
      "stateMutability": "view",
      "type": "function",
      "constant": true
    },
    {
      "inputs": [],
      "name": "currentSoc",
      "outputs": [
        {
          "internalType": "uint8",
          "name": "",
          "type": "uint8"
        }
      ],
      "stateMutability": "view",
      "type": "function",
      "constant": true
    },
    {
      "inputs": [],
      "name": "goldenHash",
      "outputs": [
        {
          "internalType": "bytes32",
          "name": "",
          "type": "bytes32"
        }
      ],
      "stateMutability": "view",
      "type": "function",
      "constant": true
    },
    {
      "inputs": [],
      "name": "operator",
      "outputs": [
        {
          "internalType": "address",
          "name": "",
          "type": "address"
        }
      ],
      "stateMutability": "view",
      "type": "function",
      "constant": true
    },
    {
      "inputs": [],
      "name": "sessionId",
      "outputs": [
        {
          "internalType": "string",
          "name": "",
          "type": "string"
        }
      ],
      "stateMutability": "view",
      "type": "function",
      "constant": true
    },
    {
      "inputs": [],
      "name": "sessionTimeout",
      "outputs": [
        {
          "internalType": "uint256",
          "name": "",
          "type": "uint256"
        }
      ],
      "stateMutability": "view",
      "type": "function",
      "constant": true
    },
    {
      "inputs": [],
      "name": "state",
      "outputs": [
        {
          "internalType": "enum ChargingEscrow.SessionState",
          "name": "",
          "type": "uint8"
        }
      ],
      "stateMutability": "view",
      "type": "function",
      "constant": true
    },
    {
      "inputs": [],
      "name": "stationId",
      "outputs": [
        {
          "internalType": "string",
          "name": "",
          "type": "string"
        }
      ],
      "stateMutability": "view",
      "type": "function",
      "constant": true
    },
    {
      "inputs": [],
      "name": "targetSoc",
      "outputs": [
        {
          "internalType": "uint8",
          "name": "",
          "type": "uint8"
        }
      ],
      "stateMutability": "view",
      "type": "function",
      "constant": true
    },
    {
      "inputs": [],
      "name": "deposit",
      "outputs": [],
      "stateMutability": "payable",
      "type": "function",
      "payable": true
    },
    {
      "inputs": [
        {
          "internalType": "bytes32",
          "name": "liveHash",
          "type": "bytes32"
        }
      ],
      "name": "verifyStation",
      "outputs": [],
      "stateMutability": "nonpayable",
      "type": "function"
    },
    {
      "inputs": [
        {
          "internalType": "string",
          "name": "_sessionId",
          "type": "string"
        }
      ],
      "name": "startCharging",
      "outputs": [],
      "stateMutability": "nonpayable",
      "type": "function"
    },
    {
      "inputs": [
        {
          "internalType": "uint8",
          "name": "soc",
          "type": "uint8"
        }
      ],
      "name": "updateSoc",
      "outputs": [],
      "stateMutability": "nonpayable",
      "type": "function"
    },
    {
      "inputs": [],
      "name": "completeSession",
      "outputs": [],
      "stateMutability": "nonpayable",
      "type": "function"
    },
    {
      "inputs": [],
      "name": "releaseFunds",
      "outputs": [],
      "stateMutability": "nonpayable",
      "type": "function"
    },
    {
      "inputs": [
        {
          "internalType": "string",
          "name": "reason",
          "type": "string"
        }
      ],
      "name": "refund",
      "outputs": [],
      "stateMutability": "nonpayable",
      "type": "function"
    },
    {
      "inputs": [
        {
          "internalType": "string",
          "name": "reason",
          "type": "string"
        }
      ],
      "name": "cancel",
      "outputs": [],
      "stateMutability": "nonpayable",
      "type": "function"
    },
    {
      "inputs": [],
      "name": "getState",
      "outputs": [
        {
          "internalType": "enum ChargingEscrow.SessionState",
          "name": "",
          "type": "uint8"
        }
      ],
      "stateMutability": "view",
      "type": "function",
      "constant": true
    },
    {
      "inputs": [],
      "name": "getBalance",
      "outputs": [
        {
          "internalType": "uint256",
          "name": "",
          "type": "uint256"
        }
      ],
      "stateMutability": "view",
      "type": "function",
      "constant": true
    }
  ],
  "bytecode": "0x608060405234801562000010575f80fd5b506040516200261438038062002614833981810160405281019062000036919062000164565b815f806101000a81548173ffffffffffffffffffffffffffffffffffffffff021916908373ffffffffffffffffffffffffffffffffffffffff1602179055508060025f6101000a81548173ffffffffffffffffffffffffffffffffffffffff021916908373ffffffffffffffffffffffffffffffffffffffff1602179055505050620001a9565b5f80fd5b5f73ffffffffffffffffffffffffffffffffffffffff82169050919050565b5f620000ec82620000c1565b9050919050565b620000fe81620000e0565b811462000109575f80fd5b50565b5f815190506200011c81620000f3565b92915050565b5f6200012e82620000c1565b9050919050565b620001408162000122565b81146200014b575f80fd5b50565b5f815190506200015e8162000135565b92915050565b5f80604083850312156200017d576200017c620000bd565b5b5f6200018c858286016200010c565b92505060206200019f858286016200014e565b9150509250929050565b61245d80620001b75f395ff3fe608060405260043610610134575f3560e01c80637150d8ae116100aa578063aa8c217c1161006e578063aa8c217c146103bc578063c19d93fb146103e6578063cf09e0d014610410578063d0e30db01461043a578063f139bda814610444578063fe5f2e881461045a57610134565b80637150d8ae146102ec5780637752020b146103165780637e19c760146103405780639648c9f414610368578063a0867c6d1461039257610134565b806336c25f9b116100fc57806336c25f9b14610206578063500c43371461022e578063570ca7351461025857806358026e65146102825780635d101dcf146102ac57806369d89575146102d657610134565b806309c01e8f146101385780630b4f3f3d1461016257806312065fe01461018a5780631865c57d146101b45780633638977f146101de575b5f80fd5b348015610143575f80fd5b5061014c610482565b6040516101599190611706565b60405180910390f35b34801561016d575f80fd5b5061018860048036038101906101839190611788565b610488565b005b348015610195575f80fd5b5061019e61085b565b6040516101ab9190611706565b60405180910390f35b3480156101bf575f80fd5b506101c8610862565b6040516101d59190611846565b60405180910390f35b3480156101e9575f80fd5b5061020460048036038101906101ff9190611788565b610877565b005b348015610211575f80fd5b5061022c60048036038101906102279190611895565b610a1f565b005b348015610239575f80fd5b50610242610bd5565b60405161024f919061194a565b60405180910390f35b348015610263575f80fd5b5061026c610c61565b60405161027991906119a9565b60405180910390f35b34801561028d575f80fd5b50610296610c84565b6040516102a391906119d1565b60405180910390f35b3480156102b7575f80fd5b506102c0610c97565b6040516102cd9190611a02565b60405180910390f35b3480156102e1575f80fd5b506102ea610c9d565b005b3480156102f7575f80fd5b50610300610eae565b60405161030d9190611a3b565b60405180910390f35b348015610321575f80fd5b5061032a610ed3565b6040516103379190611a3b565b60405180910390f35b34801561034b575f80fd5b5061036660048036038101906103619190611a7e565b610ef8565b005b348015610373575f80fd5b5061037c6110b0565b604051610389919061194a565b60405180910390f35b34801561039d575f80fd5b506103a661113c565b6040516103b391906119d1565b60405180910390f35b3480156103c7575f80fd5b506103d061114e565b6040516103dd9190611706565b60405180910390f35b3480156103f1575f80fd5b506103fa611154565b6040516104079190611846565b60405180910390f35b34801561041b575f80fd5b50610424611166565b6040516104319190611706565b60405180910390f35b61044261116c565b005b34801561044f575f80fd5b506104586112e5565b005b348015610465575f80fd5b50610480600480360381019061047b9190611788565b61145e565b005b600a5481565b5f8054906101000a900473ffffffffffffffffffffffffffffffffffffffff1673ffffffffffffffffffffffffffffffffffffffff163373ffffffffffffffffffffffffffffffffffffffff16148061052d575060015f9054906101000a900473ffffffffffffffffffffffffffffffffffffffff1673ffffffffffffffffffffffffffffffffffffffff163373ffffffffffffffffffffffffffffffffffffffff16145b61056c576040517f08c379a000000000000000000000000000000000000000000000000000000000815260040161056390611af3565b60405180910390fd5b60015f9054906101000a900473ffffffffffffffffffffffffffffffffffffffff1673ffffffffffffffffffffffffffffffffffffffff163373ffffffffffffffffffffffffffffffffffffffff160361065157600360068111156105d4576105d36117d3565b5b60055f9054906101000a900460ff1660068111156105f5576105f46117d3565b5b1480156106115750600a5460095461060d9190611b3e565b4210155b610650576040517f08c379a000000000000000000000000000000000000000000000000000000000815260040161064790611be1565b60405180910390fd5b5b60056006811115610665576106646117d3565b5b60055f9054906101000a900460ff166006811115610686576106856117d3565b5b141580156106c657506006808111156106a2576106a16117d3565b5b60055f9054906101000a900460ff1660068111156106c3576106c26117d3565b5b14155b610705576040517f08c379a00000000000000000000000000000000000000000000000000000000081526004016106fc90611c6f565b60405180910390fd5b7f2ac842f90dab3279148f7e55ac91d911f75c1c300a202a5250e05400b15fa1568282604051610736929190611cc7565b60405180910390a1600660055f6101000a81548160ff02191690836006811115610763576107626117d3565b5b02179055505f60035490505f6003819055505f8111156108565760015f9054906101000a900473ffffffffffffffffffffffffffffffffffffffff1673ffffffffffffffffffffffffffffffffffffffff166108fc8290811502906040515f60405180830381858888f193505050501580156107e1573d5f803e3d5ffd5b5060015f9054906101000a900473ffffffffffffffffffffffffffffffffffffffff1673ffffffffffffffffffffffffffffffffffffffff167fca15137148c4fd79778d6f6a3d6833d6bbc140f167d9eb76644af5763d93c22182858560405161084d93929190611ce9565b60405180910390a25b505050565b5f47905090565b5f60055f9054906101000a900460ff16905090565b5f8054906101000a900473ffffffffffffffffffffffffffffffffffffffff1673ffffffffffffffffffffffffffffffffffffffff163373ffffffffffffffffffffffffffffffffffffffff1614610904576040517f08c379a00000000000000000000000000000000000000000000000000000000081526004016108fb90611d89565b60405180910390fd5b6002806006811115610919576109186117d3565b5b60055f9054906101000a900460ff16600681111561093a576109396117d3565b5b1461097a576040517f08c379a000000000000000000000000000000000000000000000000000000000815260040161097190611e17565b60405180910390fd5b82826007918261098b929190612066565b505f600860016101000a81548160ff021916908360ff160217905550600360055f6101000a81548160ff021916908360068111156109cc576109cb6117d3565b5b02179055507f97268a03a78a714a1705bab5182dcf55f1b8e00b8c3e75a088c12186a2abf775838360085f9054906101000a900460ff16604051610a1293929190612133565b60405180910390a1505050565b5f8054906101000a900473ffffffffffffffffffffffffffffffffffffffff1673ffffffffffffffffffffffffffffffffffffffff163373ffffffffffffffffffffffffffffffffffffffff1614610aac576040517f08c379a0000000000000000000000000000000000000000000000000000000008152600401610aa390611d89565b60405180910390fd5b6003806006811115610ac157610ac06117d3565b5b60055f9054906101000a900460ff166006811115610ae257610ae16117d3565b5b14610b22576040517f08c379a0000000000000000000000000000000000000000000000000000000008152600401610b1990611e17565b60405180910390fd5b60648260ff161115610b69576040517f08c379a0000000000000000000000000000000000000000000000000000000008152600401610b60906121ad565b60405180910390fd5b5f600860019054906101000a900460ff16905082600860016101000a81548160ff021916908360ff1602179055507f10a0dedf37378ca3c15ee74a9d33facb160ac6d815ab3ed66e7f9d3fc41bebec8184604051610bc89291906121cb565b60405180910390a1505050565b60068054610be290611e99565b80601f0160208091040260200160405190810160405280929190818152602001828054610c0e90611e99565b8015610c595780601f10610c3057610100808354040283529160200191610c59565b820191905f5260205f20905b815481529060010190602001808311610c3c57829003601f168201915b505050505081565b5f8054906101000a900473ffffffffffffffffffffffffffffffffffffffff1681565b600860019054906101000a900460ff1681565b60045481565b5f8054906101000a900473ffffffffffffffffffffffffffffffffffffffff1673ffffffffffffffffffffffffffffffffffffffff163373ffffffffffffffffffffffffffffffffffffffff1614610d2a576040517f08c379a0000000000000000000000000000000000000000000000000000000008152600401610d2190611d89565b60405180910390fd5b6004806006811115610d3f57610d3e6117d3565b5b60055f9054906101000a900460ff166006811115610d6057610d5f6117d3565b5b14610da0576040517f08c379a0000000000000000000000000000000000000000000000000000000008152600401610d9790611e17565b60405180910390fd5b6005805f6101000a81548160ff02191690836006811115610dc457610dc36117d3565b5b02179055505f60035490505f60038190555060025f9054906101000a900473ffffffffffffffffffffffffffffffffffffffff1673ffffffffffffffffffffffffffffffffffffffff166108fc8290811502906040515f60405180830381858888f19350505050158015610e3a573d5f803e3d5ffd5b5060025f9054906101000a900473ffffffffffffffffffffffffffffffffffffffff1673ffffffffffffffffffffffffffffffffffffffff167f221c08a06b07a64803b3787861a3f276212fcccb51c2e6234077a9b8cb13047a82604051610ea29190611706565b60405180910390a25050565b60015f9054906101000a900473ffffffffffffffffffffffffffffffffffffffff1681565b60025f9054906101000a900473ffffffffffffffffffffffffffffffffffffffff1681565b5f8054906101000a900473ffffffffffffffffffffffffffffffffffffffff1673ffffffffffffffffffffffffffffffffffffffff163373ffffffffffffffffffffffffffffffffffffffff1614610f85576040517f08c379a0000000000000000000000000000000000000000000000000000000008152600401610f7c90611d89565b60405180910390fd5b6001806006811115610f9a57610f996117d3565b5b60055f9054906101000a900460ff166006811115610fbb57610fba6117d3565b5b14610ffb576040517f08c379a0000000000000000000000000000000000000000000000000000000008152600401610ff290611e17565b60405180910390fd5b600454820361106d57600260055f6101000a81548160ff02191690836006811115611029576110286117d3565b5b02179055507fc5a658cebdee53859dfea447156aef9c1ab2371d5f100b4d2f64339b4bf23f3c600683604051611060929190612273565b60405180910390a16110ac565b7f39201b1c544713aa7ca8d8a1d2d5c6e19e033140961c057ec284e29a820d62f16006836004546040516110a3939291906122a1565b60405180910390a15b5050565b600780546110bd90611e99565b80601f01602080910402602001604051908101604052809291908181526020018280546110e990611e99565b80156111345780601f1061110b57610100808354040283529160200191611134565b820191905f5260205f20905b81548152906001019060200180831161111757829003601f168201915b505050505081565b60085f9054906101000a900460ff1681565b60035481565b60055f9054906101000a900460ff1681565b60095481565b5f8060068111156111805761117f6117d3565b5b60055f9054906101000a900460ff1660068111156111a1576111a06117d3565b5b146111e1576040517f08c379a00000000000000000000000000000000000000000000000000000000081526004016111d890611e17565b60405180910390fd5b5f3411611223576040517f08c379a000000000000000000000000000000000000000000000000000000000815260040161121a9061234d565b60405180910390fd5b3360015f6101000a81548173ffffffffffffffffffffffffffffffffffffffff021916908373ffffffffffffffffffffffffffffffffffffffff16021790555034600381905550600160055f6101000a81548160ff0219169083600681111561128f5761128e6117d3565b5b02179055503373ffffffffffffffffffffffffffffffffffffffff167f2da466a7b24304f47e87fa2e1e5a81b9831ce54fec19055ce277ca2f39ba42c4346040516112da9190611706565b60405180910390a250565b5f8054906101000a900473ffffffffffffffffffffffffffffffffffffffff1673ffffffffffffffffffffffffffffffffffffffff163373ffffffffffffffffffffffffffffffffffffffff1614611372576040517f08c379a000000000000000000000000000000000000000000000000000000000815260040161136990611d89565b60405180910390fd5b6003806006811115611387576113866117d3565b5b60055f9054906101000a900460ff1660068111156113a8576113a76117d3565b5b146113e8576040517f08c379a00000000000000000000000000000000000000000000000000000000081526004016113df90611e17565b60405180910390fd5b600460055f6101000a81548160ff0219169083600681111561140d5761140c6117d3565b5b02179055507feb2f5b67195368565c2e7be28ad21399b4570b3562bc7c5ef42966ff76de398c6007600860019054906101000a900460ff1660405161145392919061236b565b60405180910390a150565b5f8054906101000a900473ffffffffffffffffffffffffffffffffffffffff1673ffffffffffffffffffffffffffffffffffffffff163373ffffffffffffffffffffffffffffffffffffffff16146114eb576040517f08c379a00000000000000000000000000000000000000000000000000000000081526004016114e290611d89565b60405180910390fd5b600160068111156114ff576114fe6117d3565b5b60055f9054906101000a900460ff1660068111156115205761151f6117d3565b5b148061155e57506002600681111561153b5761153a6117d3565b5b60055f9054906101000a900460ff16600681111561155c5761155b6117d3565b5b145b8061159b575060036006811115611578576115776117d3565b5b60055f9054906101000a900460ff166006811115611599576115986117d3565b5b145b6115da576040517f08c379a00000000000000000000000000000000000000000000000000000000081526004016115d190612409565b60405180910390fd5b600660055f6101000a81548160ff021916908360068111156115ff576115fe6117d3565b5b02179055505f60035490505f60038190555060015f9054906101000a900473ffffffffffffffffffffffffffffffffffffffff1673ffffffffffffffffffffffffffffffffffffffff166108fc8290811502906040515f60405180830381858888f19350505050158015611675573d5f803e3d5ffd5b5060015f9054906101000a900473ffffffffffffffffffffffffffffffffffffffff1673ffffffffffffffffffffffffffffffffffffffff167fca15137148c4fd79778d6f6a3d6833d6bbc140f167d9eb76644af5763d93c2218285856040516116e193929190611ce9565b60405180910390a2505050565b5f819050919050565b611700816116ee565b82525050565b5f6020820190506117195f8301846116f7565b92915050565b5f80fd5b5f80fd5b5f80fd5b5f80fd5b5f80fd5b5f8083601f84011261174857611747611727565b5b8235905067ffffffffffffffff8111156117655761176461172b565b5b6020830191508360018202830111156117815761178061172f565b5b9250929050565b5f806020838503121561179e5761179d61171f565b5b5f83013567ffffffffffffffff8111156117bb576117ba611723565b5b6117c785828601611733565b92509250509250929050565b7f4e487b71000000000000000000000000000000000000000000000000000000005f52602160045260245ffd5b60078110611811576118106117d3565b5b50565b5f81905061182182611800565b919050565b5f61183082611814565b9050919050565b61184081611826565b82525050565b5f6020820190506118595f830184611837565b92915050565b5f60ff82169050919050565b6118748161185f565b811461187e575f80fd5b50565b5f8135905061188f8161186b565b92915050565b5f602082840312156118aa576118a961171f565b5b5f6118b784828501611881565b91505092915050565b5f81519050919050565b5f82825260208201905092915050565b5f5b838110156118f75780820151818401526020810190506118dc565b5f8484015250505050565b5f601f19601f8301169050919050565b5f61191c826118c0565b61192681856118ca565b93506119368185602086016118da565b61193f81611902565b840191505092915050565b5f6020820190508181035f8301526119628184611912565b905092915050565b5f73ffffffffffffffffffffffffffffffffffffffff82169050919050565b5f6119938261196a565b9050919050565b6119a381611989565b82525050565b5f6020820190506119bc5f83018461199a565b92915050565b6119cb8161185f565b82525050565b5f6020820190506119e45f8301846119c2565b92915050565b5f819050919050565b6119fc816119ea565b82525050565b5f602082019050611a155f8301846119f3565b92915050565b5f611a258261196a565b9050919050565b611a3581611a1b565b82525050565b5f602082019050611a4e5f830184611a2c565b92915050565b611a5d816119ea565b8114611a67575f80fd5b50565b5f81359050611a7881611a54565b92915050565b5f60208284031215611a9357611a9261171f565b5b5f611aa084828501611a6a565b91505092915050565b7f4368617267696e67457363726f773a206e6f7420617574686f726973656400005f82015250565b5f611add601e836118ca565b9150611ae882611aa9565b602082019050919050565b5f6020820190508181035f830152611b0a81611ad1565b9050919050565b7f4e487b71000000000000000000000000000000000000000000000000000000005f52601160045260245ffd5b5f611b48826116ee565b9150611b53836116ee565b9250828201905080821115611b6b57611b6a611b11565b5b92915050565b7f4368617267696e67457363726f773a2074696d656f7574206e6f7420656c61705f8201527f7365640000000000000000000000000000000000000000000000000000000000602082015250565b5f611bcb6023836118ca565b9150611bd682611b71565b604082019050919050565b5f6020820190508181035f830152611bf881611bbf565b9050919050565b7f4368617267696e67457363726f773a20616c72656164792066696e616c6973655f8201527f6400000000000000000000000000000000000000000000000000000000000000602082015250565b5f611c596021836118ca565b9150611c6482611bff565b604082019050919050565b5f6020820190508181035f830152611c8681611c4d565b9050919050565b828183375f83830152505050565b5f611ca683856118ca565b9350611cb3838584611c8d565b611cbc83611902565b840190509392505050565b5f6020820190508181035f830152611ce0818486611c9b565b90509392505050565b5f604082019050611cfc5f8301866116f7565b8181036020830152611d0f818486611c9b565b9050949350505050565b7f4368617267696e67457363726f773a2063616c6c6572206973206e6f74206f705f8201527f657261746f720000000000000000000000000000000000000000000000000000602082015250565b5f611d736026836118ca565b9150611d7e82611d19565b604082019050919050565b5f6020820190508181035f830152611da081611d67565b9050919050565b7f4368617267696e67457363726f773a2077726f6e672073657373696f6e2073745f8201527f6174650000000000000000000000000000000000000000000000000000000000602082015250565b5f611e016023836118ca565b9150611e0c82611da7565b604082019050919050565b5f6020820190508181035f830152611e2e81611df5565b9050919050565b5f82905092915050565b7f4e487b71000000000000000000000000000000000000000000000000000000005f52604160045260245ffd5b7f4e487b71000000000000000000000000000000000000000000000000000000005f52602260045260245ffd5b5f6002820490506001821680611eb057607f821691505b602082108103611ec357611ec2611e6c565b5b50919050565b5f819050815f5260205f209050919050565b5f6020601f8301049050919050565b5f82821b905092915050565b5f60088302611f257fffffffffffffffffffffffffffffffffffffffffffffffffffffffffffffffff82611eea565b611f2f8683611eea565b95508019841693508086168417925050509392505050565b5f819050919050565b5f611f6a611f65611f60846116ee565b611f47565b6116ee565b9050919050565b5f819050919050565b611f8383611f50565b611f97611f8f82611f71565b848454611ef6565b825550505050565b5f90565b611fab611f9f565b611fb6818484611f7a565b505050565b5b81811015611fd957611fce5f82611fa3565b600181019050611fbc565b5050565b601f82111561201e57611fef81611ec9565b611ff884611edb565b81016020851015612007578190505b61201b61201385611edb565b830182611fbb565b50505b505050565b5f82821c905092915050565b5f61203e5f1984600802612023565b1980831691505092915050565b5f612056838361202f565b9150826002028217905092915050565b6120708383611e35565b67ffffffffffffffff81111561208957612088611e3f565b5b6120938254611e99565b61209e828285611fdd565b5f601f8311600181146120cb575f84156120b9578287013590505b6120c3858261204b565b86555061212a565b601f1984166120d986611ec9565b5f5b82811015612100578489013582556001820191506020850194506020810190506120db565b8683101561211d5784890135612119601f89168261202f565b8355505b6001600288020188555050505b50505050505050565b5f6040820190508181035f83015261214c818587611c9b565b905061215b60208301846119c2565b949350505050565b7f4368617267696e67457363726f773a20536f43206f7574206f662072616e67655f82015250565b5f6121976020836118ca565b91506121a282612163565b602082019050919050565b5f6020820190508181035f8301526121c48161218b565b9050919050565b5f6040820190506121de5f8301856119c2565b6121eb60208301846119c2565b9392505050565b5f81546121fe81611e99565b61220881866118ca565b9450600182165f811461222257600181146122385761226a565b60ff19831686528115156020028601935061226a565b61224185611ec9565b5f5b8381101561226257815481890152600182019150602081019050612243565b808801955050505b50505092915050565b5f6040820190508181035f83015261228b81856121f2565b905061229a60208301846119f3565b9392505050565b5f6060820190508181035f8301526122b981866121f2565b90506122c860208301856119f3565b6122d560408301846119f3565b949350505050565b7f4368617267696e67457363726f773a206465706f736974206d757374206265205f8201527f3e20300000000000000000000000000000000000000000000000000000000000602082015250565b5f6123376023836118ca565b9150612342826122dd565b604082019050919050565b5f6020820190508181035f8301526123648161232b565b9050919050565b5f6040820190508181035f83015261238381856121f2565b905061239260208301846119c2565b9392505050565b7f4368617267696e67457363726f773a2063616e6e6f7420726566756e6420696e5f8201527f2063757272656e74207374617465000000000000000000000000000000000000602082015250565b5f6123f3602e836118ca565b91506123fe82612399565b604082019050919050565b5f6020820190508181035f830152612420816123e7565b905091905056fea2646970667358221220b778f62953f313b7c725afe49e944243557fe4a80121324bfc187cee8472342b64736f6c63430008140033",
  "immutableReferences": {},
  "source": "// SPDX-License-Identifier: MIT\npragma solidity ^0.8.20;\n\n/**\n * ChargingEscrow — payment escrow for a single EV charging session.\n *\n * Lifecycle:\n *   CREATED    → deposit()         → FUNDED\n *   FUNDED     → verifyStation()   → AUTHORIZED  (hash matches)\n *   FUNDED     → refund()          → REFUNDED     (hash mismatch — called by backend)\n *   AUTHORIZED → startCharging()   → CHARGING\n *   CHARGING   → updateSoc()       (no state change — progress tracking only)\n *   CHARGING   → completeSession() → COMPLETED\n *   COMPLETED  → releaseFunds()    → RELEASED\n *   any live   → cancel()          → REFUNDED     (timeout / attack detected by backend)\n *\n * IMPORTANT: Hash verification and SoC logic live off-chain in your Spring backend.\n * This contract only enforces the money rules and records state transitions.\n * The backend calls verifyStation(), updateSoc(), completeSession(), etc.\n * after performing its own checks — the contract trusts the operator (msg.sender checks).\n */\ncontract ChargingEscrow {\n\n    // ── State machine ─────────────────────────────────────────────────────────\n\n    enum SessionState {\n        CREATED,\n        FUNDED,\n        AUTHORIZED,\n        CHARGING,\n        COMPLETED,\n        RELEASED,\n        REFUNDED\n    }\n\n    // ── Storage ───────────────────────────────────────────────────────────────\n\n    address public operator;        // the GridGarrison backend wallet (msg.sender for admin calls)\n    address payable public buyer;   // the EV driver who deposited funds\n    address payable public charger; // the charging station wallet that receives payment\n\n    uint256 public amount;          // deposited amount in wei\n    bytes32 public goldenHash;      // authoritative hash registered at deploy time\n    SessionState public state;\n\n    string  public stationId;       // human-readable station ID for logging\n    string  public sessionId;       // session identifier set at startCharging\n\n    uint8   public targetSoc;       // user-defined charge target (0-100)\n    uint8   public currentSoc;      // latest SoC reported by backend\n\n    uint256 public createdAt;\n    uint256 public sessionTimeout;  // seconds after CHARGING starts before cancel() is callable\n\n    // ── Events ────────────────────────────────────────────────────────────────\n\n    event Deposited(address indexed buyer, uint256 amount);\n    event StationVerified(string stationId, bytes32 liveHash);\n    event VerificationFailed(string stationId, bytes32 liveHash, bytes32 goldenHash);\n    event ChargingStarted(string sessionId, uint8 targetSoc);\n    event SocUpdated(uint8 previousSoc, uint8 currentSoc);\n    event SessionCompleted(string sessionId, uint8 finalSoc);\n    event FundsReleased(address indexed charger, uint256 amount);\n    event Refunded(address indexed buyer, uint256 amount, string reason);\n    event Cancelled(string reason);\n\n    // ── Modifiers ─────────────────────────────────────────────────────────────\n\n    modifier onlyOperator() {\n        require(msg.sender == operator, \"ChargingEscrow: caller is not operator\");\n        _;\n    }\n\n    modifier inState(SessionState expected) {\n        require(state == expected, \"ChargingEscrow: wrong session state\");\n        _;\n    }\n\n    // ── Constructor ───────────────────────────────────────────────────────────\n\n    /**\n * @param _operator backend wallet\n * @param _charger charging station wallet\n */\n    constructor(\n    address _operator,\n    address payable _charger\n) {\n    operator = _operator;\n    charger = _charger;\n}\n\n    // ── Buyer functions ───────────────────────────────────────────────────────\n\n    /**\n     * EV driver deposits payment into escrow.\n     * Must be called with msg.value > 0 while state is CREATED.\n     * Transitions: CREATED → FUNDED\n     */\n    function deposit() external payable inState(SessionState.CREATED) {\n        require(msg.value > 0, \"ChargingEscrow: deposit must be > 0\");\n        buyer  = payable(msg.sender);\n        amount = msg.value;\n        state  = SessionState.FUNDED;\n        emit Deposited(msg.sender, msg.value);\n    }\n\n    // ── Operator functions (called by GridGarrison Spring backend) ────────────\n\n    /**\n     * Backend calls this after verifying the live hash off-chain against\n     * FirmwareRegistry. If hashes match, session moves to AUTHORIZED.\n     * If they don't match, backend should call refund() instead.\n     *\n     * The liveHash parameter is stored for on-chain auditability — the actual\n     * comparison logic lives in your BlockchainServiceImpl / DigitalTwinServiceImpl.\n     *\n     * @param liveHash  The hash the station reported (0x-prefixed, sent as bytes32)\n     * Transitions: FUNDED → AUTHORIZED\n     */\n    function verifyStation(bytes32 liveHash)\n        external\n        onlyOperator\n        inState(SessionState.FUNDED)\n    {\n        if (liveHash == goldenHash) {\n            state = SessionState.AUTHORIZED;\n            emit StationVerified(stationId, liveHash);\n        } else {\n            // Backend should call refund() — emit event so off-chain indexer sees it\n            emit VerificationFailed(stationId, liveHash, goldenHash);\n            // Do NOT revert — let operator decide whether to refund or retry\n        }\n    }\n\n    /**\n     * Backend calls this when the OCPP transaction START event is received\n     * and the session is AUTHORIZED.\n     *\n     * @param _sessionId  OCPP transaction ID / session UUID\n     * Transitions: AUTHORIZED → CHARGING\n     */\n    function startCharging(string calldata _sessionId)\n        external\n        onlyOperator\n        inState(SessionState.AUTHORIZED)\n    {\n        sessionId  = _sessionId;\n        currentSoc = 0;\n        state      = SessionState.CHARGING;\n        emit ChargingStarted(_sessionId, targetSoc);\n    }\n\n    /**\n     * Backend calls this periodically as MeterValues arrive over OCPP.\n     * No state transition — just updates currentSoc for on-chain auditability.\n     *\n     * @param soc  Current state-of-charge reported by station (0–100)\n     */\n    function updateSoc(uint8 soc)\n        external\n        onlyOperator\n        inState(SessionState.CHARGING)\n    {\n        require(soc <= 100, \"ChargingEscrow: SoC out of range\");\n        uint8 previous = currentSoc;\n        currentSoc = soc;\n        emit SocUpdated(previous, soc);\n    }\n\n    /**\n     * Backend calls this when targetSoc is reached OR when the OCPP\n     * TransactionEvent END is received.\n     * Transitions: CHARGING → COMPLETED\n     */\n    function completeSession()\n        external\n        onlyOperator\n        inState(SessionState.CHARGING)\n    {\n        state = SessionState.COMPLETED;\n        emit SessionCompleted(sessionId, currentSoc);\n    }\n\n    /**\n     * Releases escrowed funds to the charger after session completes successfully.\n     * Transitions: COMPLETED → RELEASED\n     */\n    function releaseFunds()\n        external\n        onlyOperator\n        inState(SessionState.COMPLETED)\n    {\n        state = SessionState.RELEASED;\n        uint256 payout = amount;\n        amount = 0;\n        charger.transfer(payout);\n        emit FundsReleased(charger, payout);\n    }\n\n    /**\n     * Refunds the buyer. Called by the backend when:\n     *  - hash verification fails (TAMPERED / UNKNOWN_STATION)\n     *  - anomaly detected by DigitalTwinServiceImpl (ALERT state)\n     * Can be called from FUNDED, AUTHORIZED, or CHARGING states.\n     *\n     * @param reason  Short human-readable reason string (stored in event log)\n     */\n    function refund(string calldata reason) external onlyOperator {\n        require(\n            state == SessionState.FUNDED     ||\n            state == SessionState.AUTHORIZED ||\n            state == SessionState.CHARGING,\n            \"ChargingEscrow: cannot refund in current state\"\n        );\n        state = SessionState.REFUNDED;\n        uint256 payout = amount;\n        amount = 0;\n        buyer.transfer(payout);\n        emit Refunded(buyer, payout, reason);\n    }\n\n    /**\n     * Emergency cancel — callable by operator if session times out or\n     * a critical anomaly is detected after CHARGING begins.\n     * Also callable by buyer after sessionTimeout elapses (trustless fallback).\n     */\n    function cancel(string calldata reason) external {\n        require(\n            msg.sender == operator || msg.sender == buyer,\n            \"ChargingEscrow: not authorised\"\n        );\n\n        // Buyer self-cancel only allowed after timeout\n        if (msg.sender == buyer) {\n            require(\n                state == SessionState.CHARGING &&\n                block.timestamp >= createdAt + sessionTimeout,\n                \"ChargingEscrow: timeout not elapsed\"\n            );\n        }\n\n        require(\n            state != SessionState.RELEASED &&\n            state != SessionState.REFUNDED,\n            \"ChargingEscrow: already finalised\"\n        );\n\n        emit Cancelled(reason);\n        state = SessionState.REFUNDED;\n        uint256 payout = amount;\n        amount = 0;\n        if (payout > 0) {\n            buyer.transfer(payout);\n            emit Refunded(buyer, payout, reason);\n        }\n    }\n\n    // ── View helpers ──────────────────────────────────────────────────────────\n\n    function getState() external view returns (SessionState) { return state; }\n    function getBalance() external view returns (uint256)    { return address(this).balance; }\n}\n",
  "sourcePath": "/Users/angelachaudhuri/Documents/GGHackathon/contracts/ChargingEscrow.sol",
  "compiler": {
    "name": "solc",
    "version": "0.8.17+commit.8df45f5f.Emscripten.clang"
  },
  "schemaVersion": "3.4.16",
  "updatedAt": "2026-04-17T22:09:12.295Z",
  "devdoc": {
    "kind": "dev",
    "methods": {
      "constructor": {
        "params": {
          "_charger": "charging station wallet",
          "_operator": "backend wallet"
        }
      },
      "refund(string)": {
        "params": {
          "reason": "Short human-readable reason string (stored in event log)"
        }
      },
      "startCharging(string)": {
        "params": {
          "_sessionId": "OCPP transaction ID / session UUID Transitions: AUTHORIZED → CHARGING"
        }
      },
      "updateSoc(uint8)": {
        "params": {
          "soc": "Current state-of-charge reported by station (0–100)"
        }
      },
      "verifyStation(bytes32)": {
        "params": {
          "liveHash": "The hash the station reported (0x-prefixed, sent as bytes32) Transitions: FUNDED → AUTHORIZED"
        }
      }
    },
    "version": 1
  },
  "userdoc": {
    "kind": "user",
    "methods": {},
    "version": 1
  }
}