{
  "contractName": "ChargingEscrow",
  "abi": [
    {
      "inputs": [
        {
          "internalType": "address",
          "name": "_operator",
          "type": "address"
        },
        {
          "internalType": "address payable",
          "name": "_charger",
          "type": "address"
        },
        {
          "internalType": "string",
          "name": "_stationId",
          "type": "string"
        },
        {
          "internalType": "bytes32",
          "name": "_goldenHash",
          "type": "bytes32"
        },
        {
          "internalType": "uint8",
          "name": "_targetSoc",
          "type": "uint8"
        },
        {
          "internalType": "uint256",
          "name": "_sessionTimeout",
          "type": "uint256"
        }
      ],
      "stateMutability": "nonpayable",
      "type": "constructor"
    },
    {
      "anonymous": false,
      "inputs": [
        {
          "indexed": false,
          "internalType": "string",
          "name": "reason",
          "type": "string"
        }
      ],
      "name": "Cancelled",
      "type": "event"
    },
    {
      "anonymous": false,
      "inputs": [
        {
          "indexed": false,
          "internalType": "string",
          "name": "sessionId",
          "type": "string"
        },
        {
          "indexed": false,
          "internalType": "uint8",
          "name": "targetSoc",
          "type": "uint8"
        }
      ],
      "name": "ChargingStarted",
      "type": "event"
    },
    {
      "anonymous": false,
      "inputs": [
        {
          "indexed": true,
          "internalType": "address",
          "name": "buyer",
          "type": "address"
        },
        {
          "indexed": false,
          "internalType": "uint256",
          "name": "amount",
          "type": "uint256"
        }
      ],
      "name": "Deposited",
      "type": "event"
    },
    {
      "anonymous": false,
      "inputs": [
        {
          "indexed": true,
          "internalType": "address",
          "name": "charger",
          "type": "address"
        },
        {
          "indexed": false,
          "internalType": "uint256",
          "name": "amount",
          "type": "uint256"
        }
      ],
      "name": "FundsReleased",
      "type": "event"
    },
    {
      "anonymous": false,
      "inputs": [
        {
          "indexed": true,
          "internalType": "address",
          "name": "buyer",
          "type": "address"
        },
        {
          "indexed": false,
          "internalType": "uint256",
          "name": "amount",
          "type": "uint256"
        },
        {
          "indexed": false,
          "internalType": "string",
          "name": "reason",
          "type": "string"
        }
      ],
      "name": "Refunded",
      "type": "event"
    },
    {
      "anonymous": false,
      "inputs": [
        {
          "indexed": false,
          "internalType": "string",
          "name": "sessionId",
          "type": "string"
        },
        {
          "indexed": false,
          "internalType": "uint8",
          "name": "finalSoc",
          "type": "uint8"
        }
      ],
      "name": "SessionCompleted",
      "type": "event"
    },
    {
      "anonymous": false,
      "inputs": [
        {
          "indexed": false,
          "internalType": "uint8",
          "name": "previousSoc",
          "type": "uint8"
        },
        {
          "indexed": false,
          "internalType": "uint8",
          "name": "currentSoc",
          "type": "uint8"
        }
      ],
      "name": "SocUpdated",
      "type": "event"
    },
    {
      "anonymous": false,
      "inputs": [
        {
          "indexed": false,
          "internalType": "string",
          "name": "stationId",
          "type": "string"
        },
        {
          "indexed": false,
          "internalType": "bytes32",
          "name": "liveHash",
          "type": "bytes32"
        }
      ],
      "name": "StationVerified",
      "type": "event"
    },
    {
      "anonymous": false,
      "inputs": [
        {
          "indexed": false,
          "internalType": "string",
          "name": "stationId",
          "type": "string"
        },
        {
          "indexed": false,
          "internalType": "bytes32",
          "name": "liveHash",
          "type": "bytes32"
        },
        {
          "indexed": false,
          "internalType": "bytes32",
          "name": "goldenHash",
          "type": "bytes32"
        }
      ],
      "name": "VerificationFailed",
      "type": "event"
    },
    {
      "inputs": [],
      "name": "amount",
      "outputs": [
        {
          "internalType": "uint256",
          "name": "",
          "type": "uint256"
        }
      ],
      "stateMutability": "view",
      "type": "function",
      "constant": true
    },
    {
      "inputs": [],
      "name": "buyer",
      "outputs": [
        {
          "internalType": "address payable",
          "name": "",
          "type": "address"
        }
      ],
      "stateMutability": "view",
      "type": "function",
      "constant": true
    },
    {
      "inputs": [],
      "name": "charger",
      "outputs": [
        {
          "internalType": "address payable",
          "name": "",
          "type": "address"
        }
      ],
      "stateMutability": "view",
      "type": "function",
      "constant": true
    },
    {
      "inputs": [],
      "name": "createdAt",
      "outputs": [
        {
          "internalType": "uint256",
          "name": "",
          "type": "uint256"
        }
      ],
      "stateMutability": "view",
      "type": "function",
      "constant": true
    },
    {
      "inputs": [],
      "name": "currentSoc",
      "outputs": [
        {
          "internalType": "uint8",
          "name": "",
          "type": "uint8"
        }
      ],
      "stateMutability": "view",
      "type": "function",
      "constant": true
    },
    {
      "inputs": [],
      "name": "goldenHash",
      "outputs": [
        {
          "internalType": "bytes32",
          "name": "",
          "type": "bytes32"
        }
      ],
      "stateMutability": "view",
      "type": "function",
      "constant": true
    },
    {
      "inputs": [],
      "name": "operator",
      "outputs": [
        {
          "internalType": "address",
          "name": "",
          "type": "address"
        }
      ],
      "stateMutability": "view",
      "type": "function",
      "constant": true
    },
    {
      "inputs": [],
      "name": "sessionId",
      "outputs": [
        {
          "internalType": "string",
          "name": "",
          "type": "string"
        }
      ],
      "stateMutability": "view",
      "type": "function",
      "constant": true
    },
    {
      "inputs": [],
      "name": "sessionTimeout",
      "outputs": [
        {
          "internalType": "uint256",
          "name": "",
          "type": "uint256"
        }
      ],
      "stateMutability": "view",
      "type": "function",
      "constant": true
    },
    {
      "inputs": [],
      "name": "state",
      "outputs": [
        {
          "internalType": "enum ChargingEscrow.SessionState",
          "name": "",
          "type": "uint8"
        }
      ],
      "stateMutability": "view",
      "type": "function",
      "constant": true
    },
    {
      "inputs": [],
      "name": "stationId",
      "outputs": [
        {
          "internalType": "string",
          "name": "",
          "type": "string"
        }
      ],
      "stateMutability": "view",
      "type": "function",
      "constant": true
    },
    {
      "inputs": [],
      "name": "targetSoc",
      "outputs": [
        {
          "internalType": "uint8",
          "name": "",
          "type": "uint8"
        }
      ],
      "stateMutability": "view",
      "type": "function",
      "constant": true
    },
    {
      "inputs": [],
      "name": "deposit",
      "outputs": [],
      "stateMutability": "payable",
      "type": "function",
      "payable": true
    },
    {
      "inputs": [
        {
          "internalType": "bytes32",
          "name": "liveHash",
          "type": "bytes32"
        }
      ],
      "name": "verifyStation",
      "outputs": [],
      "stateMutability": "nonpayable",
      "type": "function"
    },
    {
      "inputs": [
        {
          "internalType": "string",
          "name": "_sessionId",
          "type": "string"
        }
      ],
      "name": "startCharging",
      "outputs": [],
      "stateMutability": "nonpayable",
      "type": "function"
    },
    {
      "inputs": [
        {
          "internalType": "uint8",
          "name": "soc",
          "type": "uint8"
        }
      ],
      "name": "updateSoc",
      "outputs": [],
      "stateMutability": "nonpayable",
      "type": "function"
    },
    {
      "inputs": [],
      "name": "completeSession",
      "outputs": [],
      "stateMutability": "nonpayable",
      "type": "function"
    },
    {
      "inputs": [],
      "name": "releaseFunds",
      "outputs": [],
      "stateMutability": "nonpayable",
      "type": "function"
    },
    {
      "inputs": [
        {
          "internalType": "string",
          "name": "reason",
          "type": "string"
        }
      ],
      "name": "refund",
      "outputs": [],
      "stateMutability": "nonpayable",
      "type": "function"
    },
    {
      "inputs": [
        {
          "internalType": "string",
          "name": "reason",
          "type": "string"
        }
      ],
      "name": "cancel",
      "outputs": [],
      "stateMutability": "nonpayable",
      "type": "function"
    },
    {
      "inputs": [],
      "name": "getState",
      "outputs": [
        {
          "internalType": "enum ChargingEscrow.SessionState",
          "name": "",
          "type": "uint8"
        }
      ],
      "stateMutability": "view",
      "type": "function",
      "constant": true
    },
    {
      "inputs": [],
      "name": "getBalance",
      "outputs": [
        {
          "internalType": "uint256",
          "name": "",
          "type": "uint256"
        }
      ],
      "stateMutability": "view",
      "type": "function",
      "constant": true
    }
  ],
  "bytecode": "0x60806040523480156200001157600080fd5b506040516200302038038062003020833981810160405281019062000037919062000563565b600073ffffffffffffffffffffffffffffffffffffffff168673ffffffffffffffffffffffffffffffffffffffff1603620000a9576040517f08c379a0000000000000000000000000000000000000000000000000000000008152600401620000a0906200067f565b60405180910390fd5b600073ffffffffffffffffffffffffffffffffffffffff168573ffffffffffffffffffffffffffffffffffffffff16036200011b576040517f08c379a00000000000000000000000000000000000000000000000000000000081526004016200011290620006f1565b60405180910390fd5b60008260ff1611801562000133575060648260ff1611155b62000175576040517f08c379a00000000000000000000000000000000000000000000000000000000081526004016200016c9062000763565b60405180910390fd5b856000806101000a81548173ffffffffffffffffffffffffffffffffffffffff021916908373ffffffffffffffffffffffffffffffffffffffff16021790555084600260006101000a81548173ffffffffffffffffffffffffffffffffffffffff021916908373ffffffffffffffffffffffffffffffffffffffff1602179055508360069081620002079190620009c6565b508260048190555081600860006101000a81548160ff021916908360ff16021790555080600a81905550426009819055506000600560006101000a81548160ff0219169083600681111562000261576200026062000aad565b5b021790555050505050505062000adc565b6000604051905090565b600080fd5b600080fd5b600073ffffffffffffffffffffffffffffffffffffffff82169050919050565b6000620002b38262000286565b9050919050565b620002c581620002a6565b8114620002d157600080fd5b50565b600081519050620002e581620002ba565b92915050565b6000620002f88262000286565b9050919050565b6200030a81620002eb565b81146200031657600080fd5b50565b6000815190506200032a81620002ff565b92915050565b600080fd5b600080fd5b6000601f19601f8301169050919050565b7f4e487b7100000000000000000000000000000000000000000000000000000000600052604160045260246000fd5b62000385826200033a565b810181811067ffffffffffffffff82111715620003a757620003a66200034b565b5b80604052505050565b6000620003bc62000272565b9050620003ca82826200037a565b919050565b600067ffffffffffffffff821115620003ed57620003ec6200034b565b5b620003f8826200033a565b9050602081019050919050565b60005b838110156200042557808201518184015260208101905062000408565b60008484015250505050565b6000620004486200044284620003cf565b620003b0565b90508281526020810184848401111562000467576200046662000335565b5b6200047484828562000405565b509392505050565b600082601f83011262000494576200049362000330565b5b8151620004a684826020860162000431565b91505092915050565b6000819050919050565b620004c481620004af565b8114620004d057600080fd5b50565b600081519050620004e481620004b9565b92915050565b600060ff82169050919050565b6200050281620004ea565b81146200050e57600080fd5b50565b6000815190506200052281620004f7565b92915050565b6000819050919050565b6200053d8162000528565b81146200054957600080fd5b50565b6000815190506200055d8162000532565b92915050565b60008060008060008060c087890312156200058357620005826200027c565b5b60006200059389828a01620002d4565b9650506020620005a689828a0162000319565b955050604087015167ffffffffffffffff811115620005ca57620005c962000281565b5b620005d889828a016200047c565b9450506060620005eb89828a01620004d3565b9350506080620005fe89828a0162000511565b92505060a06200061189828a016200054c565b9150509295509295509295565b600082825260208201905092915050565b7f6f70657261746f72207265717569726564000000000000000000000000000000600082015250565b6000620006676011836200061e565b915062000674826200062f565b602082019050919050565b600060208201905081810360008301526200069a8162000658565b9050919050565b7f6368617267657220726571756972656400000000000000000000000000000000600082015250565b6000620006d96010836200061e565b9150620006e682620006a1565b602082019050919050565b600060208201905081810360008301526200070c81620006ca565b9050919050565b7f746172676574536f63206d75737420626520312d313030000000000000000000600082015250565b60006200074b6017836200061e565b9150620007588262000713565b602082019050919050565b600060208201905081810360008301526200077e816200073c565b9050919050565b600081519050919050565b7f4e487b7100000000000000000000000000000000000000000000000000000000600052602260045260246000fd5b60006002820490506001821680620007d857607f821691505b602082108103620007ee57620007ed62000790565b5b50919050565b60008190508160005260206000209050919050565b60006020601f8301049050919050565b600082821b905092915050565b600060088302620008587fffffffffffffffffffffffffffffffffffffffffffffffffffffffffffffffff8262000819565b62000864868362000819565b95508019841693508086168417925050509392505050565b6000819050919050565b6000620008a7620008a16200089b8462000528565b6200087c565b62000528565b9050919050565b6000819050919050565b620008c38362000886565b620008db620008d282620008ae565b84845462000826565b825550505050565b600090565b620008f2620008e3565b620008ff818484620008b8565b505050565b5b8181101562000927576200091b600082620008e8565b60018101905062000905565b5050565b601f82111562000976576200094081620007f4565b6200094b8462000809565b810160208510156200095b578190505b620009736200096a8562000809565b83018262000904565b50505b505050565b600082821c905092915050565b60006200099b600019846008026200097b565b1980831691505092915050565b6000620009b6838362000988565b9150826002028217905092915050565b620009d18262000785565b67ffffffffffffffff811115620009ed57620009ec6200034b565b5b620009f98254620007bf565b62000a068282856200092b565b600060209050601f83116001811462000a3e576000841562000a29578287015190505b62000a358582620009a8565b86555062000aa5565b601f19841662000a4e86620007f4565b60005b8281101562000a785784890151825560018201915060208501945060208101905062000a51565b8683101562000a98578489015162000a94601f89168262000988565b8355505b6001600288020188555050505b505050505050565b7f4e487b7100000000000000000000000000000000000000000000000000000000600052602160045260246000fd5b6125348062000aec6000396000f3fe6080604052600436106101355760003560e01c80637150d8ae116100ab578063aa8c217c1161006f578063aa8c217c146103ce578063c19d93fb146103f9578063cf09e0d014610424578063d0e30db01461044f578063f139bda814610459578063fe5f2e881461047057610135565b80637150d8ae146102f95780637752020b146103245780637e19c7601461034f5780639648c9f414610378578063a0867c6d146103a357610135565b806336c25f9b116100fd57806336c25f9b1461020d578063500c433714610236578063570ca7351461026157806358026e651461028c5780635d101dcf146102b757806369d89575146102e257610135565b806309c01e8f1461013a5780630b4f3f3d1461016557806312065fe01461018e5780631865c57d146101b95780633638977f146101e4575b600080fd5b34801561014657600080fd5b5061014f610499565b60405161015c9190611762565b60405180910390f35b34801561017157600080fd5b5061018c600480360381019061018791906117ec565b61049f565b005b34801561019a57600080fd5b506101a3610881565b6040516101b09190611762565b60405180910390f35b3480156101c557600080fd5b506101ce610889565b6040516101db91906118b0565b60405180910390f35b3480156101f057600080fd5b5061020b600480360381019061020691906117ec565b6108a0565b005b34801561021957600080fd5b50610234600480360381019061022f9190611904565b610a4d565b005b34801561024257600080fd5b5061024b610c06565b60405161025891906119c1565b60405180910390f35b34801561026d57600080fd5b50610276610c94565b6040516102839190611a24565b60405180910390f35b34801561029857600080fd5b506102a1610cb8565b6040516102ae9190611a4e565b60405180910390f35b3480156102c357600080fd5b506102cc610ccb565b6040516102d99190611a82565b60405180910390f35b3480156102ee57600080fd5b506102f7610cd1565b005b34801561030557600080fd5b5061030e610eec565b60405161031b9190611abe565b60405180910390f35b34801561033057600080fd5b50610339610f12565b6040516103469190611abe565b60405180910390f35b34801561035b57600080fd5b5061037660048036038101906103719190611b05565b610f38565b005b34801561038457600080fd5b5061038d6110f3565b60405161039a91906119c1565b60405180910390f35b3480156103af57600080fd5b506103b8611181565b6040516103c59190611a4e565b60405180910390f35b3480156103da57600080fd5b506103e3611194565b6040516103f09190611762565b60405180910390f35b34801561040557600080fd5b5061040e61119a565b60405161041b91906118b0565b60405180910390f35b34801561043057600080fd5b506104396111ad565b6040516104469190611762565b60405180910390f35b6104576111b3565b005b34801561046557600080fd5b5061046e611331565b005b34801561047c57600080fd5b50610497600480360381019061049291906117ec565b6114ad565b005b600a5481565b60008054906101000a900473ffffffffffffffffffffffffffffffffffffffff1673ffffffffffffffffffffffffffffffffffffffff163373ffffffffffffffffffffffffffffffffffffffff1614806105465750600160009054906101000a900473ffffffffffffffffffffffffffffffffffffffff1673ffffffffffffffffffffffffffffffffffffffff163373ffffffffffffffffffffffffffffffffffffffff16145b610585576040517f08c379a000000000000000000000000000000000000000000000000000000000815260040161057c90611b7e565b60405180910390fd5b600160009054906101000a900473ffffffffffffffffffffffffffffffffffffffff1673ffffffffffffffffffffffffffffffffffffffff163373ffffffffffffffffffffffffffffffffffffffff160361066c57600360068111156105ee576105ed611839565b5b600560009054906101000a900460ff1660068111156106105761060f611839565b5b14801561062c5750600a546009546106289190611bcd565b4210155b61066b576040517f08c379a000000000000000000000000000000000000000000000000000000000815260040161066290611c73565b60405180910390fd5b5b600560068111156106805761067f611839565b5b600560009054906101000a900460ff1660068111156106a2576106a1611839565b5b141580156106e357506006808111156106be576106bd611839565b5b600560009054906101000a900460ff1660068111156106e0576106df611839565b5b14155b610722576040517f08c379a000000000000000000000000000000000000000000000000000000000815260040161071990611d05565b60405180910390fd5b7f2ac842f90dab3279148f7e55ac91d911f75c1c300a202a5250e05400b15fa1568282604051610753929190611d61565b60405180910390a16006600560006101000a81548160ff0219169083600681111561078157610780611839565b5b0217905550600060035490506000600381905550600081111561087c57600160009054906101000a900473ffffffffffffffffffffffffffffffffffffffff1673ffffffffffffffffffffffffffffffffffffffff166108fc829081150290604051600060405180830381858888f19350505050158015610806573d6000803e3d6000fd5b50600160009054906101000a900473ffffffffffffffffffffffffffffffffffffffff1673ffffffffffffffffffffffffffffffffffffffff167fca15137148c4fd79778d6f6a3d6833d6bbc140f167d9eb76644af5763d93c22182858560405161087393929190611d85565b60405180910390a25b505050565b600047905090565b6000600560009054906101000a900460ff16905090565b60008054906101000a900473ffffffffffffffffffffffffffffffffffffffff1673ffffffffffffffffffffffffffffffffffffffff163373ffffffffffffffffffffffffffffffffffffffff161461092e576040517f08c379a000000000000000000000000000000000000000000000000000000000815260040161092590611e29565b60405180910390fd5b600280600681111561094357610942611839565b5b600560009054906101000a900460ff16600681111561096557610964611839565b5b146109a5576040517f08c379a000000000000000000000000000000000000000000000000000000000815260040161099c90611ebb565b60405180910390fd5b8282600791826109b6929190612121565b506000600860016101000a81548160ff021916908360ff1602179055506003600560006101000a81548160ff021916908360068111156109f9576109f8611839565b5b02179055507f97268a03a78a714a1705bab5182dcf55f1b8e00b8c3e75a088c12186a2abf7758383600860009054906101000a900460ff16604051610a40939291906121f1565b60405180910390a1505050565b60008054906101000a900473ffffffffffffffffffffffffffffffffffffffff1673ffffffffffffffffffffffffffffffffffffffff163373ffffffffffffffffffffffffffffffffffffffff1614610adb576040517f08c379a0000000000000000000000000000000000000000000000000000000008152600401610ad290611e29565b60405180910390fd5b6003806006811115610af057610aef611839565b5b600560009054906101000a900460ff166006811115610b1257610b11611839565b5b14610b52576040517f08c379a0000000000000000000000000000000000000000000000000000000008152600401610b4990611ebb565b60405180910390fd5b60648260ff161115610b99576040517f08c379a0000000000000000000000000000000000000000000000000000000008152600401610b909061226f565b60405180910390fd5b6000600860019054906101000a900460ff16905082600860016101000a81548160ff021916908360ff1602179055507f10a0dedf37378ca3c15ee74a9d33facb160ac6d815ab3ed66e7f9d3fc41bebec8184604051610bf992919061228f565b60405180910390a1505050565b60068054610c1390611f44565b80601f0160208091040260200160405190810160405280929190818152602001828054610c3f90611f44565b8015610c8c5780601f10610c6157610100808354040283529160200191610c8c565b820191906000526020600020905b815481529060010190602001808311610c6f57829003601f168201915b505050505081565b60008054906101000a900473ffffffffffffffffffffffffffffffffffffffff1681565b600860019054906101000a900460ff1681565b60045481565b60008054906101000a900473ffffffffffffffffffffffffffffffffffffffff1673ffffffffffffffffffffffffffffffffffffffff163373ffffffffffffffffffffffffffffffffffffffff1614610d5f576040517f08c379a0000000000000000000000000000000000000000000000000000000008152600401610d5690611e29565b60405180910390fd5b6004806006811115610d7457610d73611839565b5b600560009054906101000a900460ff166006811115610d9657610d95611839565b5b14610dd6576040517f08c379a0000000000000000000000000000000000000000000000000000000008152600401610dcd90611ebb565b60405180910390fd5b60058060006101000a81548160ff02191690836006811115610dfb57610dfa611839565b5b0217905550600060035490506000600381905550600260009054906101000a900473ffffffffffffffffffffffffffffffffffffffff1673ffffffffffffffffffffffffffffffffffffffff166108fc829081150290604051600060405180830381858888f19350505050158015610e77573d6000803e3d6000fd5b50600260009054906101000a900473ffffffffffffffffffffffffffffffffffffffff1673ffffffffffffffffffffffffffffffffffffffff167f221c08a06b07a64803b3787861a3f276212fcccb51c2e6234077a9b8cb13047a82604051610ee09190611762565b60405180910390a25050565b600160009054906101000a900473ffffffffffffffffffffffffffffffffffffffff1681565b600260009054906101000a900473ffffffffffffffffffffffffffffffffffffffff1681565b60008054906101000a900473ffffffffffffffffffffffffffffffffffffffff1673ffffffffffffffffffffffffffffffffffffffff163373ffffffffffffffffffffffffffffffffffffffff1614610fc6576040517f08c379a0000000000000000000000000000000000000000000000000000000008152600401610fbd90611e29565b60405180910390fd5b6001806006811115610fdb57610fda611839565b5b600560009054906101000a900460ff166006811115610ffd57610ffc611839565b5b1461103d576040517f08c379a000000000000000000000000000000000000000000000000000000000815260040161103490611ebb565b60405180910390fd5b60045482036110b0576002600560006101000a81548160ff0219169083600681111561106c5761106b611839565b5b02179055507fc5a658cebdee53859dfea447156aef9c1ab2371d5f100b4d2f64339b4bf23f3c6006836040516110a392919061233c565b60405180910390a16110ef565b7f39201b1c544713aa7ca8d8a1d2d5c6e19e033140961c057ec284e29a820d62f16006836004546040516110e69392919061236c565b60405180910390a15b5050565b6007805461110090611f44565b80601f016020809104026020016040519081016040528092919081815260200182805461112c90611f44565b80156111795780601f1061114e57610100808354040283529160200191611179565b820191906000526020600020905b81548152906001019060200180831161115c57829003601f168201915b505050505081565b600860009054906101000a900460ff1681565b60035481565b600560009054906101000a900460ff1681565b60095481565b60008060068111156111c8576111c7611839565b5b600560009054906101000a900460ff1660068111156111ea576111e9611839565b5b1461122a576040517f08c379a000000000000000000000000000000000000000000000000000000000815260040161122190611ebb565b60405180910390fd5b6000341161126d576040517f08c379a00000000000000000000000000000000000000000000000000000000081526004016112649061241c565b60405180910390fd5b33600160006101000a81548173ffffffffffffffffffffffffffffffffffffffff021916908373ffffffffffffffffffffffffffffffffffffffff160217905550346003819055506001600560006101000a81548160ff021916908360068111156112db576112da611839565b5b02179055503373ffffffffffffffffffffffffffffffffffffffff167f2da466a7b24304f47e87fa2e1e5a81b9831ce54fec19055ce277ca2f39ba42c4346040516113269190611762565b60405180910390a250565b60008054906101000a900473ffffffffffffffffffffffffffffffffffffffff1673ffffffffffffffffffffffffffffffffffffffff163373ffffffffffffffffffffffffffffffffffffffff16146113bf576040517f08c379a00000000000000000000000000000000000000000000000000000000081526004016113b690611e29565b60405180910390fd5b60038060068111156113d4576113d3611839565b5b600560009054906101000a900460ff1660068111156113f6576113f5611839565b5b14611436576040517f08c379a000000000000000000000000000000000000000000000000000000000815260040161142d90611ebb565b60405180910390fd5b6004600560006101000a81548160ff0219169083600681111561145c5761145b611839565b5b02179055507feb2f5b67195368565c2e7be28ad21399b4570b3562bc7c5ef42966ff76de398c6007600860019054906101000a900460ff166040516114a292919061243c565b60405180910390a150565b60008054906101000a900473ffffffffffffffffffffffffffffffffffffffff1673ffffffffffffffffffffffffffffffffffffffff163373ffffffffffffffffffffffffffffffffffffffff161461153b576040517f08c379a000000000000000000000000000000000000000000000000000000000815260040161153290611e29565b60405180910390fd5b6001600681111561154f5761154e611839565b5b600560009054906101000a900460ff16600681111561157157611570611839565b5b14806115b057506002600681111561158c5761158b611839565b5b600560009054906101000a900460ff1660068111156115ae576115ad611839565b5b145b806115ee5750600360068111156115ca576115c9611839565b5b600560009054906101000a900460ff1660068111156115ec576115eb611839565b5b145b61162d576040517f08c379a0000000000000000000000000000000000000000000000000000000008152600401611624906124de565b60405180910390fd5b6006600560006101000a81548160ff0219169083600681111561165357611652611839565b5b0217905550600060035490506000600381905550600160009054906101000a900473ffffffffffffffffffffffffffffffffffffffff1673ffffffffffffffffffffffffffffffffffffffff166108fc829081150290604051600060405180830381858888f193505050501580156116cf573d6000803e3d6000fd5b50600160009054906101000a900473ffffffffffffffffffffffffffffffffffffffff1673ffffffffffffffffffffffffffffffffffffffff167fca15137148c4fd79778d6f6a3d6833d6bbc140f167d9eb76644af5763d93c22182858560405161173c93929190611d85565b60405180910390a2505050565b6000819050919050565b61175c81611749565b82525050565b60006020820190506117776000830184611753565b92915050565b600080fd5b600080fd5b600080fd5b600080fd5b600080fd5b60008083601f8401126117ac576117ab611787565b5b8235905067ffffffffffffffff8111156117c9576117c861178c565b5b6020830191508360018202830111156117e5576117e4611791565b5b9250929050565b600080602083850312156118035761180261177d565b5b600083013567ffffffffffffffff81111561182157611820611782565b5b61182d85828601611796565b92509250509250929050565b7f4e487b7100000000000000000000000000000000000000000000000000000000600052602160045260246000fd5b6007811061187957611878611839565b5b50565b600081905061188a82611868565b919050565b600061189a8261187c565b9050919050565b6118aa8161188f565b82525050565b60006020820190506118c560008301846118a1565b92915050565b600060ff82169050919050565b6118e1816118cb565b81146118ec57600080fd5b50565b6000813590506118fe816118d8565b92915050565b60006020828403121561191a5761191961177d565b5b6000611928848285016118ef565b91505092915050565b600081519050919050565b600082825260208201905092915050565b60005b8381101561196b578082015181840152602081019050611950565b60008484015250505050565b6000601f19601f8301169050919050565b600061199382611931565b61199d818561193c565b93506119ad81856020860161194d565b6119b681611977565b840191505092915050565b600060208201905081810360008301526119db8184611988565b905092915050565b600073ffffffffffffffffffffffffffffffffffffffff82169050919050565b6000611a0e826119e3565b9050919050565b611a1e81611a03565b82525050565b6000602082019050611a396000830184611a15565b92915050565b611a48816118cb565b82525050565b6000602082019050611a636000830184611a3f565b92915050565b6000819050919050565b611a7c81611a69565b82525050565b6000602082019050611a976000830184611a73565b92915050565b6000611aa8826119e3565b9050919050565b611ab881611a9d565b82525050565b6000602082019050611ad36000830184611aaf565b92915050565b611ae281611a69565b8114611aed57600080fd5b50565b600081359050611aff81611ad9565b92915050565b600060208284031215611b1b57611b1a61177d565b5b6000611b2984828501611af0565b91505092915050565b7f4368617267696e67457363726f773a206e6f7420617574686f72697365640000600082015250565b6000611b68601e8361193c565b9150611b7382611b32565b602082019050919050565b60006020820190508181036000830152611b9781611b5b565b9050919050565b7f4e487b7100000000000000000000000000000000000000000000000000000000600052601160045260246000fd5b6000611bd882611749565b9150611be383611749565b9250828201905080821115611bfb57611bfa611b9e565b5b92915050565b7f4368617267696e67457363726f773a2074696d656f7574206e6f7420656c617060008201527f7365640000000000000000000000000000000000000000000000000000000000602082015250565b6000611c5d60238361193c565b9150611c6882611c01565b604082019050919050565b60006020820190508181036000830152611c8c81611c50565b9050919050565b7f4368617267696e67457363726f773a20616c72656164792066696e616c69736560008201527f6400000000000000000000000000000000000000000000000000000000000000602082015250565b6000611cef60218361193c565b9150611cfa82611c93565b604082019050919050565b60006020820190508181036000830152611d1e81611ce2565b9050919050565b82818337600083830152505050565b6000611d40838561193c565b9350611d4d838584611d25565b611d5683611977565b840190509392505050565b60006020820190508181036000830152611d7c818486611d34565b90509392505050565b6000604082019050611d9a6000830186611753565b8181036020830152611dad818486611d34565b9050949350505050565b7f4368617267696e67457363726f773a2063616c6c6572206973206e6f74206f7060008201527f657261746f720000000000000000000000000000000000000000000000000000602082015250565b6000611e1360268361193c565b9150611e1e82611db7565b604082019050919050565b60006020820190508181036000830152611e4281611e06565b9050919050565b7f4368617267696e67457363726f773a2077726f6e672073657373696f6e20737460008201527f6174650000000000000000000000000000000000000000000000000000000000602082015250565b6000611ea560238361193c565b9150611eb082611e49565b604082019050919050565b60006020820190508181036000830152611ed481611e98565b9050919050565b600082905092915050565b7f4e487b7100000000000000000000000000000000000000000000000000000000600052604160045260246000fd5b7f4e487b7100000000000000000000000000000000000000000000000000000000600052602260045260246000fd5b60006002820490506001821680611f5c57607f821691505b602082108103611f6f57611f6e611f15565b5b50919050565b60008190508160005260206000209050919050565b60006020601f8301049050919050565b600082821b905092915050565b600060088302611fd77fffffffffffffffffffffffffffffffffffffffffffffffffffffffffffffffff82611f9a565b611fe18683611f9a565b95508019841693508086168417925050509392505050565b6000819050919050565b600061201e61201961201484611749565b611ff9565b611749565b9050919050565b6000819050919050565b61203883612003565b61204c61204482612025565b848454611fa7565b825550505050565b600090565b612061612054565b61206c81848461202f565b505050565b5b8181101561209057612085600082612059565b600181019050612072565b5050565b601f8211156120d5576120a681611f75565b6120af84611f8a565b810160208510156120be578190505b6120d26120ca85611f8a565b830182612071565b50505b505050565b600082821c905092915050565b60006120f8600019846008026120da565b1980831691505092915050565b600061211183836120e7565b9150826002028217905092915050565b61212b8383611edb565b67ffffffffffffffff81111561214457612143611ee6565b5b61214e8254611f44565b612159828285612094565b6000601f8311600181146121885760008415612176578287013590505b6121808582612105565b8655506121e8565b601f19841661219686611f75565b60005b828110156121be57848901358255600182019150602085019450602081019050612199565b868310156121db57848901356121d7601f8916826120e7565b8355505b6001600288020188555050505b50505050505050565b6000604082019050818103600083015261220c818587611d34565b905061221b6020830184611a3f565b949350505050565b7f4368617267696e67457363726f773a20536f43206f7574206f662072616e6765600082015250565b600061225960208361193c565b915061226482612223565b602082019050919050565b600060208201905081810360008301526122888161224c565b9050919050565b60006040820190506122a46000830185611a3f565b6122b16020830184611a3f565b9392505050565b600081546122c581611f44565b6122cf818661193c565b945060018216600081146122ea576001811461230057612333565b60ff198316865281151560200286019350612333565b61230985611f75565b60005b8381101561232b5781548189015260018201915060208101905061230c565b808801955050505b50505092915050565b6000604082019050818103600083015261235681856122b8565b90506123656020830184611a73565b9392505050565b6000606082019050818103600083015261238681866122b8565b90506123956020830185611a73565b6123a26040830184611a73565b949350505050565b7f4368617267696e67457363726f773a206465706f736974206d7573742062652060008201527f3e20300000000000000000000000000000000000000000000000000000000000602082015250565b600061240660238361193c565b9150612411826123aa565b604082019050919050565b60006020820190508181036000830152612435816123f9565b9050919050565b6000604082019050818103600083015261245681856122b8565b90506124656020830184611a3f565b9392505050565b7f4368617267696e67457363726f773a2063616e6e6f7420726566756e6420696e60008201527f2063757272656e74207374617465000000000000000000000000000000000000602082015250565b60006124c8602e8361193c565b91506124d38261246c565b604082019050919050565b600060208201905081810360008301526124f7816124bb565b905091905056fea2646970667358221220cbedad737f61d4ac6e28a161f69c18c473e46edd9f8d5fd2d3c67526717c644164736f6c63430008110033",
  "immutableReferences": {},
  "source": "// SPDX-License-Identifier: MIT\r\npragma solidity ^0.8.17;\r\n\r\n/**\r\n * ChargingEscrow — payment escrow for a single EV charging session.\r\n *\r\n * Lifecycle:\r\n *   CREATED    → deposit()         → FUNDED\r\n *   FUNDED     → verifyStation()   → AUTHORIZED  (hash matches)\r\n *   FUNDED     → refund()          → REFUNDED     (hash mismatch — called by backend)\r\n *   AUTHORIZED → startCharging()   → CHARGING\r\n *   CHARGING   → updateSoc()       (no state change — progress tracking only)\r\n *   CHARGING   → completeSession() → COMPLETED\r\n *   COMPLETED  → releaseFunds()    → RELEASED\r\n *   any live   → cancel()          → REFUNDED     (timeout / attack detected by backend)\r\n *\r\n * IMPORTANT: Hash verification and SoC logic live off-chain in your Spring backend.\r\n * This contract only enforces the money rules and records state transitions.\r\n * The backend calls verifyStation(), updateSoc(), completeSession(), etc.\r\n * after performing its own checks — the contract trusts the operator (msg.sender checks).\r\n */\r\ncontract ChargingEscrow {\r\n\r\n    // ── State machine ─────────────────────────────────────────────────────────\r\n\r\n    enum SessionState {\r\n        CREATED,\r\n        FUNDED,\r\n        AUTHORIZED,\r\n        CHARGING,\r\n        COMPLETED,\r\n        RELEASED,\r\n        REFUNDED\r\n    }\r\n\r\n    // ── Storage ───────────────────────────────────────────────────────────────\r\n\r\n    address public operator;        // the GridGarrison backend wallet (msg.sender for admin calls)\r\n    address payable public buyer;   // the EV driver who deposited funds\r\n    address payable public charger; // the charging station wallet that receives payment\r\n\r\n    uint256 public amount;          // deposited amount in wei\r\n    bytes32 public goldenHash;      // authoritative hash registered at deploy time\r\n    SessionState public state;\r\n\r\n    string  public stationId;       // human-readable station ID for logging\r\n    string  public sessionId;       // session identifier set at startCharging\r\n\r\n    uint8   public targetSoc;       // user-defined charge target (0-100)\r\n    uint8   public currentSoc;      // latest SoC reported by backend\r\n\r\n    uint256 public createdAt;\r\n    uint256 public sessionTimeout;  // seconds after CHARGING starts before cancel() is callable\r\n\r\n    // ── Events ────────────────────────────────────────────────────────────────\r\n\r\n    event Deposited(address indexed buyer, uint256 amount);\r\n    event StationVerified(string stationId, bytes32 liveHash);\r\n    event VerificationFailed(string stationId, bytes32 liveHash, bytes32 goldenHash);\r\n    event ChargingStarted(string sessionId, uint8 targetSoc);\r\n    event SocUpdated(uint8 previousSoc, uint8 currentSoc);\r\n    event SessionCompleted(string sessionId, uint8 finalSoc);\r\n    event FundsReleased(address indexed charger, uint256 amount);\r\n    event Refunded(address indexed buyer, uint256 amount, string reason);\r\n    event Cancelled(string reason);\r\n\r\n    // ── Modifiers ─────────────────────────────────────────────────────────────\r\n\r\n    modifier onlyOperator() {\r\n        require(msg.sender == operator, \"ChargingEscrow: caller is not operator\");\r\n        _;\r\n    }\r\n\r\n    modifier inState(SessionState expected) {\r\n        require(state == expected, \"ChargingEscrow: wrong session state\");\r\n        _;\r\n    }\r\n\r\n    // ── Constructor ───────────────────────────────────────────────────────────\r\n\r\n    /**\r\n     * @param _operator Backend operator wallet address that is allowed to run admin transitions.\r\n     * @param _charger Wallet address that receives the released payment after successful charging.\r\n     * @param _stationId Human-readable station identifier used for events and audit context.\r\n     * @param _goldenHash Canonical firmware hash baseline stored for station verification.\r\n     * @param _targetSoc Requested charging target percentage in the range 1 to 100.\r\n     * @param _sessionTimeout Timeout in seconds used for buyer self-cancel protection.\r\n     */\r\n    constructor(\r\n    address _operator,\r\n    address payable _charger,\r\n    string memory _stationId,\r\n    bytes32 _goldenHash,\r\n    uint8 _targetSoc,\r\n    uint256 _sessionTimeout\r\n) {\r\n    require(_operator != address(0), \"operator required\");\r\n    require(_charger  != address(0), \"charger required\");\r\n    require(_targetSoc > 0 && _targetSoc <= 100, \"targetSoc must be 1-100\");\r\n\r\n    operator       = _operator;\r\n    charger        = _charger;\r\n    stationId      = _stationId;\r\n    goldenHash     = _goldenHash;\r\n    targetSoc      = _targetSoc;\r\n    sessionTimeout = _sessionTimeout;\r\n    createdAt      = block.timestamp;\r\n    state          = SessionState.CREATED;\r\n}\r\n\r\n    // ── Buyer functions ───────────────────────────────────────────────────────\r\n\r\n    /**\r\n     * EV driver deposits payment into escrow.\r\n     * Must be called with msg.value > 0 while state is CREATED.\r\n     * Transitions: CREATED → FUNDED\r\n     */\r\n    function deposit() external payable inState(SessionState.CREATED) {\r\n        require(msg.value > 0, \"ChargingEscrow: deposit must be > 0\");\r\n        buyer  = payable(msg.sender);\r\n        amount = msg.value;\r\n        state  = SessionState.FUNDED;\r\n        emit Deposited(msg.sender, msg.value);\r\n    }\r\n\r\n    // ── Operator functions (called by GridGarrison Spring backend) ────────────\r\n\r\n    /**\r\n     * Backend calls this after verifying the live hash off-chain against\r\n     * FirmwareRegistry. If hashes match, session moves to AUTHORIZED.\r\n     * If they don't match, backend should call refund() instead.\r\n     *\r\n     * The liveHash parameter is stored for on-chain auditability — the actual\r\n     * comparison logic lives in your BlockchainServiceImpl / DigitalTwinServiceImpl.\r\n     *\r\n     * @param liveHash  The hash the station reported (0x-prefixed, sent as bytes32)\r\n     * Transitions: FUNDED → AUTHORIZED\r\n     */\r\n    function verifyStation(bytes32 liveHash)\r\n        external\r\n        onlyOperator\r\n        inState(SessionState.FUNDED)\r\n    {\r\n        if (liveHash == goldenHash) {\r\n            state = SessionState.AUTHORIZED;\r\n            emit StationVerified(stationId, liveHash);\r\n        } else {\r\n            // Backend should call refund() — emit event so off-chain indexer sees it\r\n            emit VerificationFailed(stationId, liveHash, goldenHash);\r\n            // Do NOT revert — let operator decide whether to refund or retry\r\n        }\r\n    }\r\n\r\n    /**\r\n     * Backend calls this when the OCPP transaction START event is received\r\n     * and the session is AUTHORIZED.\r\n     *\r\n     * @param _sessionId  OCPP transaction ID / session UUID\r\n     * Transitions: AUTHORIZED → CHARGING\r\n     */\r\n    function startCharging(string calldata _sessionId)\r\n        external\r\n        onlyOperator\r\n        inState(SessionState.AUTHORIZED)\r\n    {\r\n        sessionId  = _sessionId;\r\n        currentSoc = 0;\r\n        state      = SessionState.CHARGING;\r\n        emit ChargingStarted(_sessionId, targetSoc);\r\n    }\r\n\r\n    /**\r\n     * Backend calls this periodically as MeterValues arrive over OCPP.\r\n     * No state transition — just updates currentSoc for on-chain auditability.\r\n     *\r\n     * @param soc  Current state-of-charge reported by station (0–100)\r\n     */\r\n    function updateSoc(uint8 soc)\r\n        external\r\n        onlyOperator\r\n        inState(SessionState.CHARGING)\r\n    {\r\n        require(soc <= 100, \"ChargingEscrow: SoC out of range\");\r\n        uint8 previous = currentSoc;\r\n        currentSoc = soc;\r\n        emit SocUpdated(previous, soc);\r\n    }\r\n\r\n    /**\r\n     * Backend calls this when targetSoc is reached OR when the OCPP\r\n     * TransactionEvent END is received.\r\n     * Transitions: CHARGING → COMPLETED\r\n     */\r\n    function completeSession()\r\n        external\r\n        onlyOperator\r\n        inState(SessionState.CHARGING)\r\n    {\r\n        state = SessionState.COMPLETED;\r\n        emit SessionCompleted(sessionId, currentSoc);\r\n    }\r\n\r\n    /**\r\n     * Releases escrowed funds to the charger after session completes successfully.\r\n     * Transitions: COMPLETED → RELEASED\r\n     */\r\n    function releaseFunds()\r\n        external\r\n        onlyOperator\r\n        inState(SessionState.COMPLETED)\r\n    {\r\n        state = SessionState.RELEASED;\r\n        uint256 payout = amount;\r\n        amount = 0;\r\n        charger.transfer(payout);\r\n        emit FundsReleased(charger, payout);\r\n    }\r\n\r\n    /**\r\n     * Refunds the buyer. Called by the backend when:\r\n     *  - hash verification fails (TAMPERED / UNKNOWN_STATION)\r\n     *  - anomaly detected by DigitalTwinServiceImpl (ALERT state)\r\n     * Can be called from FUNDED, AUTHORIZED, or CHARGING states.\r\n     *\r\n     * @param reason  Short human-readable reason string (stored in event log)\r\n     */\r\n    function refund(string calldata reason) external onlyOperator {\r\n        require(\r\n            state == SessionState.FUNDED     ||\r\n            state == SessionState.AUTHORIZED ||\r\n            state == SessionState.CHARGING,\r\n            \"ChargingEscrow: cannot refund in current state\"\r\n        );\r\n        state = SessionState.REFUNDED;\r\n        uint256 payout = amount;\r\n        amount = 0;\r\n        buyer.transfer(payout);\r\n        emit Refunded(buyer, payout, reason);\r\n    }\r\n\r\n    /**\r\n     * Emergency cancel — callable by operator if session times out or\r\n     * a critical anomaly is detected after CHARGING begins.\r\n     * Also callable by buyer after sessionTimeout elapses (trustless fallback).\r\n     */\r\n    function cancel(string calldata reason) external {\r\n        require(\r\n            msg.sender == operator || msg.sender == buyer,\r\n            \"ChargingEscrow: not authorised\"\r\n        );\r\n\r\n        // Buyer self-cancel only allowed after timeout\r\n        if (msg.sender == buyer) {\r\n            require(\r\n                state == SessionState.CHARGING &&\r\n                block.timestamp >= createdAt + sessionTimeout,\r\n                \"ChargingEscrow: timeout not elapsed\"\r\n            );\r\n        }\r\n\r\n        require(\r\n            state != SessionState.RELEASED &&\r\n            state != SessionState.REFUNDED,\r\n            \"ChargingEscrow: already finalised\"\r\n        );\r\n\r\n        emit Cancelled(reason);\r\n        state = SessionState.REFUNDED;\r\n        uint256 payout = amount;\r\n        amount = 0;\r\n        if (payout > 0) {\r\n            buyer.transfer(payout);\r\n            emit Refunded(buyer, payout, reason);\r\n        }\r\n    }\r\n\r\n    // ── View helpers ──────────────────────────────────────────────────────────\r\n\r\n    function getState() external view returns (SessionState) { return state; }\r\n    function getBalance() external view returns (uint256)    { return address(this).balance; }\r\n}\r\n",
  "sourcePath": "C:\\aur\\gridgarrison\\contracts\\ChargingEscrow.sol",
  "compiler": {
    "name": "solc",
    "version": "0.8.17+commit.8df45f5f.Emscripten.clang"
  },
  "schemaVersion": "3.4.16",
  "updatedAt": "2026-04-17T22:45:19.226Z",
  "networkType": "ethereum",
  "devdoc": {
    "kind": "dev",
    "methods": {
      "constructor": {
        "params": {
          "_charger": "Wallet address that receives the released payment after successful charging.",
          "_goldenHash": "Canonical firmware hash baseline stored for station verification.",
          "_operator": "Backend operator wallet address that is allowed to run admin transitions.",
          "_sessionTimeout": "Timeout in seconds used for buyer self-cancel protection.",
          "_stationId": "Human-readable station identifier used for events and audit context.",
          "_targetSoc": "Requested charging target percentage in the range 1 to 100."
        }
      },
      "refund(string)": {
        "params": {
          "reason": "Short human-readable reason string (stored in event log)"
        }
      },
      "startCharging(string)": {
        "params": {
          "_sessionId": "OCPP transaction ID / session UUID Transitions: AUTHORIZED → CHARGING"
        }
      },
      "updateSoc(uint8)": {
        "params": {
          "soc": "Current state-of-charge reported by station (0–100)"
        }
      },
      "verifyStation(bytes32)": {
        "params": {
          "liveHash": "The hash the station reported (0x-prefixed, sent as bytes32) Transitions: FUNDED → AUTHORIZED"
        }
      }
    },
    "version": 1
  },
  "userdoc": {
    "kind": "user",
    "methods": {
      "cancel(string)": {
        "notice": "Emergency cancel — callable by operator if session times out or a critical anomaly is detected after CHARGING begins. Also callable by buyer after sessionTimeout elapses (trustless fallback)."
      },
      "completeSession()": {
        "notice": "Backend calls this when targetSoc is reached OR when the OCPP TransactionEvent END is received. Transitions: CHARGING → COMPLETED"
      },
      "deposit()": {
        "notice": "EV driver deposits payment into escrow. Must be called with msg.value > 0 while state is CREATED. Transitions: CREATED → FUNDED"
      },
      "refund(string)": {
        "notice": "Refunds the buyer. Called by the backend when:  - hash verification fails (TAMPERED / UNKNOWN_STATION)  - anomaly detected by DigitalTwinServiceImpl (ALERT state) Can be called from FUNDED, AUTHORIZED, or CHARGING states."
      },
      "releaseFunds()": {
        "notice": "Releases escrowed funds to the charger after session completes successfully. Transitions: COMPLETED → RELEASED"
      },
      "startCharging(string)": {
        "notice": "Backend calls this when the OCPP transaction START event is received and the session is AUTHORIZED."
      },
      "updateSoc(uint8)": {
        "notice": "Backend calls this periodically as MeterValues arrive over OCPP. No state transition — just updates currentSoc for on-chain auditability."
      },
      "verifyStation(bytes32)": {
        "notice": "Backend calls this after verifying the live hash off-chain against FirmwareRegistry. If hashes match, session moves to AUTHORIZED. If they don't match, backend should call refund() instead. The liveHash parameter is stored for on-chain auditability — the actual comparison logic lives in your BlockchainServiceImpl / DigitalTwinServiceImpl."
      }
    },
    "notice": "ChargingEscrow — payment escrow for a single EV charging session. Lifecycle:   CREATED    → deposit()         → FUNDED   FUNDED     → verifyStation()   → AUTHORIZED  (hash matches)   FUNDED     → refund()          → REFUNDED     (hash mismatch — called by backend)   AUTHORIZED → startCharging()   → CHARGING   CHARGING   → updateSoc()       (no state change — progress tracking only)   CHARGING   → completeSession() → COMPLETED   COMPLETED  → releaseFunds()    → RELEASED   any live   → cancel()          → REFUNDED     (timeout / attack detected by backend) IMPORTANT: Hash verification and SoC logic live off-chain in your Spring backend. This contract only enforces the money rules and records state transitions. The backend calls verifyStation(), updateSoc(), completeSession(), etc. after performing its own checks — the contract trusts the operator (msg.sender checks).",
    "version": 1
  }
}